{
  "contractName": "PurchaseAgreement",
  "abi": [
    {
      "inputs": [],
      "stateMutability": "payable",
      "type": "constructor"
    },
    {
      "inputs": [],
      "name": "InvalidState",
      "type": "error"
    },
    {
      "inputs": [],
      "name": "OnlyBuyer",
      "type": "error"
    },
    {
      "inputs": [],
      "name": "OnlySeller",
      "type": "error"
    },
    {
      "inputs": [],
      "name": "buyer",
      "outputs": [
        {
          "internalType": "address payable",
          "name": "",
          "type": "address"
        }
      ],
      "stateMutability": "view",
      "type": "function"
    },
    {
      "inputs": [],
      "name": "seller",
      "outputs": [
        {
          "internalType": "address payable",
          "name": "",
          "type": "address"
        }
      ],
      "stateMutability": "view",
      "type": "function"
    },
    {
      "inputs": [],
      "name": "state",
      "outputs": [
        {
          "internalType": "enum PurchaseAgreement.State",
          "name": "",
          "type": "uint8"
        }
      ],
      "stateMutability": "view",
      "type": "function"
    },
    {
      "inputs": [],
      "name": "value",
      "outputs": [
        {
          "internalType": "uint256",
          "name": "",
          "type": "uint256"
        }
      ],
      "stateMutability": "view",
      "type": "function"
    },
    {
      "inputs": [],
      "name": "confirmPurhcase",
      "outputs": [],
      "stateMutability": "payable",
      "type": "function"
    },
    {
      "inputs": [],
      "name": "confirmReceived",
      "outputs": [],
      "stateMutability": "nonpayable",
      "type": "function"
    },
    {
      "inputs": [],
      "name": "paySeller",
      "outputs": [],
      "stateMutability": "nonpayable",
      "type": "function"
    },
    {
      "inputs": [],
      "name": "abort",
      "outputs": [],
      "stateMutability": "nonpayable",
      "type": "function"
    }
  ],
  "bytecode": "0x608060405233600160006101000a81548173ffffffffffffffffffffffffffffffffffffffff021916908373ffffffffffffffffffffffffffffffffffffffff1602179055506002346100529190610096565b6000819055506100c7565b6000819050919050565b7f4e487b7100000000000000000000000000000000000000000000000000000000600052601260045260246000fd5b60006100a18261005d565b91506100ac8361005d565b9250826100bc576100bb610067565b5b828204905092915050565b610a44806100d66000396000f3fe60806040526004361061007b5760003560e01c806371d6fccf1161004e57806371d6fccf1461011857806373fac6f014610122578063a0c97bce14610139578063c19d93fb146101505761007b565b806308551a531461008057806335a063b4146100ab5780633fa4f245146100c25780637150d8ae146100ed575b600080fd5b34801561008c57600080fd5b5061009561017b565b6040516100a29190610801565b60405180910390f35b3480156100b757600080fd5b506100c06101a1565b005b3480156100ce57600080fd5b506100d761032d565b6040516100e49190610835565b60405180910390f35b3480156100f957600080fd5b50610102610333565b60405161010f9190610801565b60405180910390f35b610120610359565b005b34801561012e57600080fd5b50610137610486565b005b34801561014557600080fd5b5061014e610613565b005b34801561015c57600080fd5b506101656107ad565b60405161017291906108c7565b60405180910390f35b600160009054906101000a900473ffffffffffffffffffffffffffffffffffffffff1681565b600160009054906101000a900473ffffffffffffffffffffffffffffffffffffffff1673ffffffffffffffffffffffffffffffffffffffff163373ffffffffffffffffffffffffffffffffffffffff1614610228576040517f85d1f72600000000000000000000000000000000000000000000000000000000815260040160405180910390fd5b600080600381111561023d5761023c610850565b5b600260149054906101000a900460ff16600381111561025f5761025e610850565b5b14610296576040517fbaf3f0f700000000000000000000000000000000000000000000000000000000815260040160405180910390fd5b6003600260146101000a81548160ff021916908360038111156102bc576102bb610850565b5b0217905550600160009054906101000a900473ffffffffffffffffffffffffffffffffffffffff1673ffffffffffffffffffffffffffffffffffffffff166108fc479081150290604051600060405180830381858888f19350505050158015610329573d6000803e3d6000fd5b5050565b60005481565b600260009054906101000a900473ffffffffffffffffffffffffffffffffffffffff1681565b600080600381111561036e5761036d610850565b5b600260149054906101000a900460ff1660038111156103905761038f610850565b5b146103c7576040517fbaf3f0f700000000000000000000000000000000000000000000000000000000815260040160405180910390fd5b60005460026103d69190610911565b3414610417576040517f08c379a000000000000000000000000000000000000000000000000000000000815260040161040e906109ee565b60405180910390fd5b33600260006101000a81548173ffffffffffffffffffffffffffffffffffffffff021916908373ffffffffffffffffffffffffffffffffffffffff1602179055506001600260146101000a81548160ff0219169083600381111561047e5761047d610850565b5b021790555050565b600260009054906101000a900473ffffffffffffffffffffffffffffffffffffffff1673ffffffffffffffffffffffffffffffffffffffff163373ffffffffffffffffffffffffffffffffffffffff161461050d576040517f86efbb5500000000000000000000000000000000000000000000000000000000815260040160405180910390fd5b600180600381111561052257610521610850565b5b600260149054906101000a900460ff16600381111561054457610543610850565b5b1461057b576040517fbaf3f0f700000000000000000000000000000000000000000000000000000000815260040160405180910390fd5b60028060146101000a81548160ff021916908360038111156105a05761059f610850565b5b0217905550600260009054906101000a900473ffffffffffffffffffffffffffffffffffffffff1673ffffffffffffffffffffffffffffffffffffffff166108fc6000549081150290604051600060405180830381858888f1935050505015801561060f573d6000803e3d6000fd5b5050565b600160009054906101000a900473ffffffffffffffffffffffffffffffffffffffff1673ffffffffffffffffffffffffffffffffffffffff163373ffffffffffffffffffffffffffffffffffffffff161461069a576040517f85d1f72600000000000000000000000000000000000000000000000000000000815260040160405180910390fd5b60028060038111156106af576106ae610850565b5b600260149054906101000a900460ff1660038111156106d1576106d0610850565b5b14610708576040517fbaf3f0f700000000000000000000000000000000000000000000000000000000815260040160405180910390fd5b6003600260146101000a81548160ff0219169083600381111561072e5761072d610850565b5b0217905550600160009054906101000a900473ffffffffffffffffffffffffffffffffffffffff1673ffffffffffffffffffffffffffffffffffffffff166108fc600054600361077e9190610911565b9081150290604051600060405180830381858888f193505050501580156107a9573d6000803e3d6000fd5b5050565b600260149054906101000a900460ff1681565b600073ffffffffffffffffffffffffffffffffffffffff82169050919050565b60006107eb826107c0565b9050919050565b6107fb816107e0565b82525050565b600060208201905061081660008301846107f2565b92915050565b6000819050919050565b61082f8161081c565b82525050565b600060208201905061084a6000830184610826565b92915050565b7f4e487b7100000000000000000000000000000000000000000000000000000000600052602160045260246000fd5b600481106108905761088f610850565b5b50565b60008190506108a18261087f565b919050565b60006108b182610893565b9050919050565b6108c1816108a6565b82525050565b60006020820190506108dc60008301846108b8565b92915050565b7f4e487b7100000000000000000000000000000000000000000000000000000000600052601160045260246000fd5b600061091c8261081c565b91506109278361081c565b9250817fffffffffffffffffffffffffffffffffffffffffffffffffffffffffffffffff04831182151516156109605761095f6108e2565b5b828202905092915050565b600082825260208201905092915050565b7f506c656173652073656e6420696e20327820746865207075726863617365206160008201527f6d6f756e74000000000000000000000000000000000000000000000000000000602082015250565b60006109d860258361096b565b91506109e38261097c565b604082019050919050565b60006020820190508181036000830152610a07816109cb565b905091905056fea26469706673582212208078355073a7eb39836ed2d12eef05aa9add7cd481d99d8197aa6e2dd0afb21464736f6c634300080b0033",
  "immutableReferences": {},
  "source": "// SPDX-License-Identifier: MIT\r\npragma solidity >=0.8.11;\r\n\r\ncontract PurchaseAgreement{\r\n\r\n       constructor() payable{\r\n        seller = payable(msg.sender);\r\n        value = msg.value / 2;\r\n    }\r\n\r\n    uint public value;\r\n    address payable public seller;\r\n    address payable public buyer;\r\n\r\n    enum State {Created, Locked, Release, Inactive}\r\n    State public state;\r\n\r\n    \r\n    /// The function cannot be called at the current state\r\n    error InvalidState();\r\n\r\n    /// Only the buyer can call this function\r\n    error OnlyBuyer();\r\n\r\n     /// Only the Seller can call this function\r\n    error OnlySeller();\r\n\r\n    modifier inState(State state_){\r\n        if(state != state_){\r\n            revert InvalidState();\r\n        }\r\n        _;\r\n    }\r\n    \r\n    modifier onlyBuyer(){\r\n        if(msg.sender != buyer){\r\n            revert OnlyBuyer();\r\n        }\r\n        _;\r\n    }\r\n\r\n        modifier onlySeller(){\r\n        if(msg.sender != seller){\r\n            revert OnlySeller();\r\n        }\r\n        _;\r\n    }\r\n\r\n\r\n    function confirmPurhcase() external inState(State.Created) payable {\r\n        require(msg.value == (2* value), \"Please send in 2x the purhcase amount\");\r\n        buyer = payable(msg.sender);\r\n        state = State.Locked;\r\n    }\r\n\r\n    function confirmReceived() external onlyBuyer inState(State.Locked) {\r\n        state = State.Release;\r\n        buyer.transfer(value);\r\n    }\r\n\r\n    function paySeller() external onlySeller inState(State.Release){\r\n      state = State.Inactive;\r\n      seller.transfer(3*value);\r\n    }\r\n\r\n    function abort() external onlySeller inState(State.Created){\r\n        state = State.Inactive;\r\n        seller.transfer(address(this).balance);\r\n    }\r\n\r\n\r\n\r\n}",
  "sourcePath": "C:\\testas\\blockchain\\ethereum-ex\\contracts\\PurchaseAgreement.sol",
  "compiler": {
    "name": "solc",
    "version": "0.8.11+commit.d7f03943.Emscripten.clang"
  },
  "schemaVersion": "3.4.11",
  "updatedAt": "2022-12-14T08:32:25.479Z",
  "devdoc": {
    "kind": "dev",
    "methods": {},
    "version": 1
  },
  "userdoc": {
    "errors": {
      "InvalidState()": [
        {
          "notice": "The function cannot be called at the current state"
        }
      ],
      "OnlyBuyer()": [
        {
          "notice": "Only the buyer can call this function"
        }
      ],
      "OnlySeller()": [
        {
          "notice": "Only the Seller can call this function"
        }
      ]
    },
    "kind": "user",
    "methods": {},
    "version": 1
  }
}